{
  "_format": "hh-sol-artifact-1",
  "contractName": "LiquidityPool",
  "sourceName": "contracts/LiquidityPool.sol",
  "abi": [
    {
      "inputs": [
        {
          "internalType": "string",
          "name": "_name",
          "type": "string"
        },
        {
          "internalType": "string",
          "name": "_symbol",
          "type": "string"
        },
        {
          "internalType": "address",
          "name": "_addressTokenA",
          "type": "address"
        },
        {
          "internalType": "address",
          "name": "_addressTokenB",
          "type": "address"
        }
      ],
      "stateMutability": "nonpayable",
      "type": "constructor"
    },
    {
      "anonymous": false,
      "inputs": [
        {
          "indexed": true,
          "internalType": "address",
          "name": "_owner",
          "type": "address"
        },
        {
          "indexed": true,
          "internalType": "address",
          "name": "_spender",
          "type": "address"
        },
        {
          "indexed": false,
          "internalType": "uint256",
          "name": "_value",
          "type": "uint256"
        }
      ],
      "name": "Approval",
      "type": "event"
    },
    {
      "anonymous": false,
      "inputs": [
        {
          "indexed": true,
          "internalType": "address",
          "name": "from",
          "type": "address"
        },
        {
          "indexed": false,
          "internalType": "uint256",
          "name": "value",
          "type": "uint256"
        }
      ],
      "name": "Burn",
      "type": "event"
    },
    {
      "anonymous": false,
      "inputs": [
        {
          "indexed": true,
          "internalType": "address",
          "name": "from",
          "type": "address"
        },
        {
          "indexed": false,
          "internalType": "uint256",
          "name": "value",
          "type": "uint256"
        }
      ],
      "name": "Mint",
      "type": "event"
    },
    {
      "anonymous": false,
      "inputs": [
        {
          "indexed": true,
          "internalType": "address",
          "name": "from",
          "type": "address"
        },
        {
          "indexed": false,
          "internalType": "uint256",
          "name": "amountTokenA",
          "type": "uint256"
        },
        {
          "indexed": false,
          "internalType": "uint256",
          "name": "amountTokenB",
          "type": "uint256"
        }
      ],
      "name": "MintLPToken",
      "type": "event"
    },
    {
      "anonymous": false,
      "inputs": [
        {
          "indexed": false,
          "internalType": "uint256",
          "name": "reserveTokenA",
          "type": "uint256"
        },
        {
          "indexed": false,
          "internalType": "uint256",
          "name": "reserveTokenB",
          "type": "uint256"
        }
      ],
      "name": "Sync",
      "type": "event"
    },
    {
      "anonymous": false,
      "inputs": [
        {
          "indexed": true,
          "internalType": "address",
          "name": "from",
          "type": "address"
        },
        {
          "indexed": true,
          "internalType": "address",
          "name": "to",
          "type": "address"
        },
        {
          "indexed": false,
          "internalType": "uint256",
          "name": "value",
          "type": "uint256"
        }
      ],
      "name": "Transfer",
      "type": "event"
    },
    {
      "inputs": [
        {
          "internalType": "uint256",
          "name": "_amountTokenA",
          "type": "uint256"
        },
        {
          "internalType": "uint256",
          "name": "_amountTokenB",
          "type": "uint256"
        }
      ],
      "name": "addLiquidity",
      "outputs": [
        {
          "internalType": "bool",
          "name": "success",
          "type": "bool"
        }
      ],
      "stateMutability": "nonpayable",
      "type": "function"
    },
    {
      "inputs": [],
      "name": "addressTokenA",
      "outputs": [
        {
          "internalType": "address",
          "name": "",
          "type": "address"
        }
      ],
      "stateMutability": "view",
      "type": "function"
    },
    {
      "inputs": [],
      "name": "addressTokenB",
      "outputs": [
        {
          "internalType": "address",
          "name": "",
          "type": "address"
        }
      ],
      "stateMutability": "view",
      "type": "function"
    },
    {
      "inputs": [
        {
          "internalType": "address",
          "name": "",
          "type": "address"
        },
        {
          "internalType": "address",
          "name": "",
          "type": "address"
        }
      ],
      "name": "allowance",
      "outputs": [
        {
          "internalType": "uint256",
          "name": "",
          "type": "uint256"
        }
      ],
      "stateMutability": "view",
      "type": "function"
    },
    {
      "inputs": [
        {
          "internalType": "address",
          "name": "_spender",
          "type": "address"
        },
        {
          "internalType": "uint256",
          "name": "_value",
          "type": "uint256"
        }
      ],
      "name": "approve",
      "outputs": [
        {
          "internalType": "bool",
          "name": "success",
          "type": "bool"
        }
      ],
      "stateMutability": "nonpayable",
      "type": "function"
    },
    {
      "inputs": [
        {
          "internalType": "address",
          "name": "",
          "type": "address"
        }
      ],
      "name": "balanceOf",
      "outputs": [
        {
          "internalType": "uint256",
          "name": "",
          "type": "uint256"
        }
      ],
      "stateMutability": "view",
      "type": "function"
    },
    {
      "inputs": [
        {
          "internalType": "uint256",
          "name": "_value",
          "type": "uint256"
        }
      ],
      "name": "burn",
      "outputs": [
        {
          "internalType": "bool",
          "name": "success",
          "type": "bool"
        }
      ],
      "stateMutability": "nonpayable",
      "type": "function"
    },
    {
      "inputs": [
        {
          "internalType": "uint256",
          "name": "amountIn",
          "type": "uint256"
        },
        {
          "internalType": "uint256",
          "name": "reserveIn",
          "type": "uint256"
        },
        {
          "internalType": "uint256",
          "name": "reserveOut",
          "type": "uint256"
        }
      ],
      "name": "getAmountOut",
      "outputs": [
        {
          "internalType": "uint256",
          "name": "amountOut",
          "type": "uint256"
        }
      ],
      "stateMutability": "pure",
      "type": "function"
    },
    {
      "inputs": [],
      "name": "name",
      "outputs": [
        {
          "internalType": "string",
          "name": "",
          "type": "string"
        }
      ],
      "stateMutability": "view",
      "type": "function"
    },
    {
      "inputs": [],
      "name": "owner",
      "outputs": [
        {
          "internalType": "address",
          "name": "",
          "type": "address"
        }
      ],
      "stateMutability": "view",
      "type": "function"
    },
    {
      "inputs": [],
      "name": "priceTokenA",
      "outputs": [
        {
          "internalType": "uint256",
          "name": "",
          "type": "uint256"
        }
      ],
      "stateMutability": "view",
      "type": "function"
    },
    {
      "inputs": [],
      "name": "priceTokenB",
      "outputs": [
        {
          "internalType": "uint256",
          "name": "",
          "type": "uint256"
        }
      ],
      "stateMutability": "view",
      "type": "function"
    },
    {
      "inputs": [
        {
          "internalType": "uint256",
          "name": "liquidityShares",
          "type": "uint256"
        }
      ],
      "name": "removeLiquidity",
      "outputs": [
        {
          "internalType": "uint256",
          "name": "",
          "type": "uint256"
        },
        {
          "internalType": "uint256",
          "name": "",
          "type": "uint256"
        }
      ],
      "stateMutability": "nonpayable",
      "type": "function"
    },
    {
      "inputs": [],
      "name": "reserveTokenA",
      "outputs": [
        {
          "internalType": "uint256",
          "name": "",
          "type": "uint256"
        }
      ],
      "stateMutability": "view",
      "type": "function"
    },
    {
      "inputs": [],
      "name": "reserveTokenB",
      "outputs": [
        {
          "internalType": "uint256",
          "name": "",
          "type": "uint256"
        }
      ],
      "stateMutability": "view",
      "type": "function"
    },
    {
      "inputs": [
        {
          "internalType": "uint256",
          "name": "amountIn",
          "type": "uint256"
        },
        {
          "internalType": "address",
          "name": "tokenIn",
          "type": "address"
        },
        {
          "internalType": "address",
          "name": "tokenOut",
          "type": "address"
        }
      ],
      "name": "swap",
      "outputs": [
        {
          "internalType": "bool",
          "name": "",
          "type": "bool"
        }
      ],
      "stateMutability": "nonpayable",
      "type": "function"
    },
    {
      "inputs": [],
      "name": "symbol",
      "outputs": [
        {
          "internalType": "string",
          "name": "",
          "type": "string"
        }
      ],
      "stateMutability": "view",
      "type": "function"
    },
    {
      "inputs": [],
      "name": "sync",
      "outputs": [],
      "stateMutability": "nonpayable",
      "type": "function"
    },
    {
      "inputs": [],
      "name": "totalSupply",
      "outputs": [
        {
          "internalType": "uint256",
          "name": "",
          "type": "uint256"
        }
      ],
      "stateMutability": "view",
      "type": "function"
    },
    {
      "inputs": [
        {
          "internalType": "address",
          "name": "_to",
          "type": "address"
        },
        {
          "internalType": "uint256",
          "name": "_value",
          "type": "uint256"
        }
      ],
      "name": "transfer",
      "outputs": [
        {
          "internalType": "bool",
          "name": "success",
          "type": "bool"
        }
      ],
      "stateMutability": "nonpayable",
      "type": "function"
    },
    {
      "inputs": [
        {
          "internalType": "address",
          "name": "_from",
          "type": "address"
        },
        {
          "internalType": "address",
          "name": "_to",
          "type": "address"
        },
        {
          "internalType": "uint256",
          "name": "_value",
          "type": "uint256"
        }
      ],
      "name": "transferFrom",
      "outputs": [
        {
          "internalType": "bool",
          "name": "success",
          "type": "bool"
        }
      ],
      "stateMutability": "nonpayable",
      "type": "function"
    }
  ],
  "bytecode": "0x60806040523480156200001157600080fd5b506040516200306d3803806200306d8339818101604052810190620000379190620002c3565b6000848482600281905550600254600360003373ffffffffffffffffffffffffffffffffffffffff1673ffffffffffffffffffffffffffffffffffffffff168152602001908152602001600020819055508160009080519060200190620000a09291906200018a565b508060019080519060200190620000b99291906200018a565b5050505081600560006101000a81548173ffffffffffffffffffffffffffffffffffffffff021916908373ffffffffffffffffffffffffffffffffffffffff16021790555080600660006101000a81548173ffffffffffffffffffffffffffffffffffffffff021916908373ffffffffffffffffffffffffffffffffffffffff16021790555033600760006101000a81548173ffffffffffffffffffffffffffffffffffffffff021916908373ffffffffffffffffffffffffffffffffffffffff16021790555050505050620004e0565b828054620001989062000432565b90600052602060002090601f016020900481019282620001bc576000855562000208565b82601f10620001d757805160ff191683800117855562000208565b8280016001018555821562000208579182015b8281111562000207578251825591602001919060010190620001ea565b5b5090506200021791906200021b565b5090565b5b80821115620002365760008160009055506001016200021c565b5090565b6000620002516200024b8462000395565b62000361565b9050828152602081018484840111156200026a57600080fd5b62000277848285620003fc565b509392505050565b6000815190506200029081620004c6565b92915050565b600082601f830112620002a857600080fd5b8151620002ba8482602086016200023a565b91505092915050565b60008060008060808587031215620002da57600080fd5b600085015167ffffffffffffffff811115620002f557600080fd5b620003038782880162000296565b945050602085015167ffffffffffffffff8111156200032157600080fd5b6200032f8782880162000296565b935050604062000342878288016200027f565b925050606062000355878288016200027f565b91505092959194509250565b6000604051905081810181811067ffffffffffffffff821117156200038b576200038a62000497565b5b8060405250919050565b600067ffffffffffffffff821115620003b357620003b262000497565b5b601f19601f8301169050602081019050919050565b6000620003d582620003dc565b9050919050565b600073ffffffffffffffffffffffffffffffffffffffff82169050919050565b60005b838110156200041c578082015181840152602081019050620003ff565b838111156200042c576000848401525b50505050565b600060028204905060018216806200044b57607f821691505b6020821081141562000462576200046162000468565b5b50919050565b7f4e487b7100000000000000000000000000000000000000000000000000000000600052602260045260246000fd5b7f4e487b7100000000000000000000000000000000000000000000000000000000600052604160045260246000fd5b620004d181620003c8565b8114620004dd57600080fd5b50565b612b7d80620004f06000396000f3fe608060405234801561001057600080fd5b50600436106101375760003560e01c80638de6959b116100b8578063a9059cbb1161007c578063a9059cbb1461038f578063c248320c146103bf578063dd62ed3e146103dd578063e9a7fb691461040d578063f9c1d6771461042b578063fff6cae91461044957610137565b80638de6959b146102d45780638fe4a565146102f257806395d89b41146103105780639c8f9f231461032e5780639cd441da1461035f57610137565b806323b872dd116100ff57806323b872dd146101f65780632b7f09231461022657806342966c681461025657806370a08231146102865780638da5cb5b146102b657610137565b8063054d50d41461013c57806306fdde031461016c578063095ea7b31461018a57806318160ddd146101ba57806319b16aa6146101d8575b600080fd5b61015660048036038101906101519190612209565b610453565b6040516101639190612842565b60405180910390f35b610174610559565b60405161018191906126a0565b60405180910390f35b6101a4600480360381019061019f91906120c7565b6105e7565b6040516101b19190612685565b60405180910390f35b6101c26106d9565b6040516101cf9190612842565b60405180910390f35b6101e06106df565b6040516101ed9190612842565b60405180910390f35b610210600480360381019061020b9190612078565b6106e5565b60405161021d9190612685565b60405180910390f35b610240600480360381019061023b919061217e565b61084f565b60405161024d9190612685565b60405180910390f35b610270600480360381019061026b919061212c565b610e43565b60405161027d9190612685565b60405180910390f35b6102a0600480360381019061029b9190612013565b610f57565b6040516102ad9190612842565b60405180910390f35b6102be610f6f565b6040516102cb919061260a565b60405180910390f35b6102dc610f95565b6040516102e99190612842565b60405180910390f35b6102fa610f9b565b6040516103079190612842565b60405180910390f35b610318610fa1565b60405161032591906126a0565b60405180910390f35b6103486004803603810190610343919061212c565b61102f565b60405161035692919061285d565b60405180910390f35b610379600480360381019061037491906121cd565b611330565b6040516103869190612685565b60405180910390f35b6103a960048036038101906103a491906120c7565b611531565b6040516103b69190612685565b60405180910390f35b6103c7611548565b6040516103d49190612842565b60405180910390f35b6103f760048036038101906103f2919061203c565b61154e565b6040516104049190612842565b60405180910390f35b610415611573565b604051610422919061260a565b60405180910390f35b610433611599565b604051610440919061260a565b60405180910390f35b6104516115bf565b005b6000808411610497576040517f08c379a000000000000000000000000000000000000000000000000000000000815260040161048e90612822565b60405180910390fd5b6000831180156104a75750600082115b6104e6576040517f08c379a00000000000000000000000000000000000000000000000000000000081526004016104dd90612782565b60405180910390fd5b60006104fd6103e58661172590919063ffffffff16565b90506000610514848361172590919063ffffffff16565b9050600061053f836105316103e88961172590919063ffffffff16565b61179290919063ffffffff16565b9050808261054d91906128f8565b93505050509392505050565b6000805461056690612a32565b80601f016020809104026020016040519081016040528092919081815260200182805461059290612a32565b80156105df5780601f106105b4576101008083540402835291602001916105df565b820191906000526020600020905b8154815290600101906020018083116105c257829003601f168201915b505050505081565b600081600460003373ffffffffffffffffffffffffffffffffffffffff1673ffffffffffffffffffffffffffffffffffffffff16815260200190815260200160002060008573ffffffffffffffffffffffffffffffffffffffff1673ffffffffffffffffffffffffffffffffffffffff168152602001908152602001600020819055508273ffffffffffffffffffffffffffffffffffffffff163373ffffffffffffffffffffffffffffffffffffffff167f8c5be1e5ebec7d5bd14f71427d1e84f3dd0314c0f7b2291e5b200ac8c7c3b925846040516106c79190612842565b60405180910390a36001905092915050565b60025481565b60095481565b6000600460008573ffffffffffffffffffffffffffffffffffffffff1673ffffffffffffffffffffffffffffffffffffffff16815260200190815260200160002060003373ffffffffffffffffffffffffffffffffffffffff1673ffffffffffffffffffffffffffffffffffffffff168152602001908152602001600020548211156107a6576040517f08c379a000000000000000000000000000000000000000000000000000000000815260040161079d906127a2565b60405180910390fd5b81600460008673ffffffffffffffffffffffffffffffffffffffff1673ffffffffffffffffffffffffffffffffffffffff16815260200190815260200160002060003373ffffffffffffffffffffffffffffffffffffffff1673ffffffffffffffffffffffffffffffffffffffff16815260200190815260200160002060008282546108329190612983565b925050819055506108448484846117eb565b600190509392505050565b6000600560009054906101000a900473ffffffffffffffffffffffffffffffffffffffff1673ffffffffffffffffffffffffffffffffffffffff168373ffffffffffffffffffffffffffffffffffffffff1614806108fa5750600660009054906101000a900473ffffffffffffffffffffffffffffffffffffffff1673ffffffffffffffffffffffffffffffffffffffff168373ffffffffffffffffffffffffffffffffffffffff16145b610939576040517f08c379a000000000000000000000000000000000000000000000000000000000815260040161093090612802565b60405180910390fd5b600560009054906101000a900473ffffffffffffffffffffffffffffffffffffffff1673ffffffffffffffffffffffffffffffffffffffff168273ffffffffffffffffffffffffffffffffffffffff1614806109e25750600660009054906101000a900473ffffffffffffffffffffffffffffffffffffffff1673ffffffffffffffffffffffffffffffffffffffff168273ffffffffffffffffffffffffffffffffffffffff16145b610a21576040517f08c379a0000000000000000000000000000000000000000000000000000000008152600401610a1890612802565b60405180910390fd5b600083905060008390506000600560009054906101000a900473ffffffffffffffffffffffffffffffffffffffff1673ffffffffffffffffffffffffffffffffffffffff168673ffffffffffffffffffffffffffffffffffffffff1614610a8a57600954610a8e565b6008545b90506000600560009054906101000a900473ffffffffffffffffffffffffffffffffffffffff1673ffffffffffffffffffffffffffffffffffffffff168673ffffffffffffffffffffffffffffffffffffffff1614610aef57600954610af3565b6008545b90506000610b02898484610453565b905060008111610b47576040517f08c379a0000000000000000000000000000000000000000000000000000000008152600401610b3e90612762565b60405180910390fd5b600060c88a610b5691906128f8565b905060008183610b669190612983565b90508673ffffffffffffffffffffffffffffffffffffffff166323b872dd33308e6040518463ffffffff1660e01b8152600401610ba593929190612625565b602060405180830381600087803b158015610bbf57600080fd5b505af1158015610bd3573d6000803e3d6000fd5b505050506040513d601f19601f82011682018060405250810190610bf79190612103565b610c36576040517f08c379a0000000000000000000000000000000000000000000000000000000008152600401610c2d90612742565b60405180910390fd5b8573ffffffffffffffffffffffffffffffffffffffff1663a9059cbb33836040518363ffffffff1660e01b8152600401610c7192919061265c565b602060405180830381600087803b158015610c8b57600080fd5b505af1158015610c9f573d6000803e3d6000fd5b505050506040513d601f19601f82011682018060405250810190610cc39190612103565b610d02576040517f08c379a0000000000000000000000000000000000000000000000000000000008152600401610cf990612742565b60405180910390fd5b600560009054906101000a900473ffffffffffffffffffffffffffffffffffffffff1673ffffffffffffffffffffffffffffffffffffffff168a73ffffffffffffffffffffffffffffffffffffffff161415610da8578a60086000828254610d6a91906128a2565b925050819055508260096000828254610d839190612983565b925050819055508160086000828254610d9c9190612983565b92505081905550610df4565b8a60096000828254610dba91906128a2565b925050819055508260086000828254610dd39190612983565b925050819055508160096000828254610dec9190612983565b925050819055505b7fcf2aa50876cdfbb541206f89af0ee78d44a2abf8d328e37fa4917f982149848a600854600954604051610e2992919061285d565b60405180910390a160019750505050505050509392505050565b600081600360003373ffffffffffffffffffffffffffffffffffffffff1673ffffffffffffffffffffffffffffffffffffffff168152602001908152602001600020541015610e9157600080fd5b81600360003373ffffffffffffffffffffffffffffffffffffffff1673ffffffffffffffffffffffffffffffffffffffff1681526020019081526020016000206000828254610ee09190612983565b925050819055508160026000828254610ef99190612983565b925050819055503373ffffffffffffffffffffffffffffffffffffffff167fcc16f5dbb4873280815c1ee09dbd06736cffcc184412cf7a71a0fdb75d397ca583604051610f469190612842565b60405180910390a260019050919050565b60036020528060005260406000206000915090505481565b600760009054906101000a900473ffffffffffffffffffffffffffffffffffffffff1681565b600c5481565b600b5481565b60018054610fae90612a32565b80601f0160208091040260200160405190810160405280929190818152602001828054610fda90612a32565b80156110275780601f10610ffc57610100808354040283529160200191611027565b820191906000526020600020905b81548152906001019060200180831161100a57829003601f168201915b505050505081565b6000806000600254600854856110459190612929565b61104f91906128f8565b90506000600254600954866110649190612929565b61106e91906128f8565b90506000821180156110805750600081115b6110bf576040517f08c379a00000000000000000000000000000000000000000000000000000000081526004016110b6906127e2565b60405180910390fd5b600560009054906101000a900473ffffffffffffffffffffffffffffffffffffffff1673ffffffffffffffffffffffffffffffffffffffff1663a9059cbb33846040518363ffffffff1660e01b815260040161111c92919061265c565b602060405180830381600087803b15801561113657600080fd5b505af115801561114a573d6000803e3d6000fd5b505050506040513d601f19601f8201168201806040525081019061116e9190612103565b6111ad576040517f08c379a00000000000000000000000000000000000000000000000000000000081526004016111a490612742565b60405180910390fd5b600660009054906101000a900473ffffffffffffffffffffffffffffffffffffffff1673ffffffffffffffffffffffffffffffffffffffff1663a9059cbb33836040518363ffffffff1660e01b815260040161120a92919061265c565b602060405180830381600087803b15801561122457600080fd5b505af1158015611238573d6000803e3d6000fd5b505050506040513d601f19601f8201168201806040525081019061125c9190612103565b61129b576040517f08c379a000000000000000000000000000000000000000000000000000000000815260040161129290612742565b60405180910390fd5b81600860008282546112ad9190612983565b9250508190555080600960008282546112c69190612983565b9250508190555084600260008282546112df9190612983565b925050819055507fcf2aa50876cdfbb541206f89af0ee78d44a2abf8d328e37fa4917f982149848a60085460095460405161131b92919061285d565b60405180910390a18181935093505050915091565b600080600560009054906101000a900473ffffffffffffffffffffffffffffffffffffffff1690508073ffffffffffffffffffffffffffffffffffffffff166323b872dd3330876040518463ffffffff1660e01b815260040161139593929190612625565b602060405180830381600087803b1580156113af57600080fd5b505af11580156113c3573d6000803e3d6000fd5b505050506040513d601f19601f820116820180604052508101906113e79190612103565b611426576040517f08c379a000000000000000000000000000000000000000000000000000000000815260040161141d906126c2565b60405180910390fd5b6000600660009054906101000a900473ffffffffffffffffffffffffffffffffffffffff1690508073ffffffffffffffffffffffffffffffffffffffff166323b872dd3330876040518463ffffffff1660e01b815260040161148a93929190612625565b602060405180830381600087803b1580156114a457600080fd5b505af11580156114b8573d6000803e3d6000fd5b505050506040513d601f19601f820116820180604052508101906114dc9190612103565b61151b576040517f08c379a0000000000000000000000000000000000000000000000000000000008152600401611512906126c2565b60405180910390fd5b61152433611b6b565b5060019250505092915050565b600061153e3384846117eb565b6001905092915050565b60085481565b6004602052816000526040600020602052806000526040600020600091509150505481565b600560009054906101000a900473ffffffffffffffffffffffffffffffffffffffff1681565b600660009054906101000a900473ffffffffffffffffffffffffffffffffffffffff1681565b611723600560009054906101000a900473ffffffffffffffffffffffffffffffffffffffff1673ffffffffffffffffffffffffffffffffffffffff166370a08231306040518263ffffffff1660e01b815260040161161d919061260a565b60206040518083038186803b15801561163557600080fd5b505afa158015611649573d6000803e3d6000fd5b505050506040513d601f19601f8201168201806040525081019061166d9190612155565b600660009054906101000a900473ffffffffffffffffffffffffffffffffffffffff1673ffffffffffffffffffffffffffffffffffffffff166370a08231306040518263ffffffff1660e01b81526004016116c8919061260a565b60206040518083038186803b1580156116e057600080fd5b505afa1580156116f4573d6000803e3d6000fd5b505050506040513d601f19601f820116820180604052508101906117189190612155565b600854600954611df6565b565b60008082148061174d57508282838561173e9190612929565b92508261174b91906128f8565b145b61178c576040517f08c379a0000000000000000000000000000000000000000000000000000000008152600401611783906126e2565b60405180910390fd5b92915050565b60008282846117a191906128a2565b91508110156117e5576040517f08c379a00000000000000000000000000000000000000000000000000000000081526004016117dc90612722565b60405180910390fd5b92915050565b600073ffffffffffffffffffffffffffffffffffffffff168273ffffffffffffffffffffffffffffffffffffffff16141561182557600080fd5b80600360008573ffffffffffffffffffffffffffffffffffffffff1673ffffffffffffffffffffffffffffffffffffffff16815260200190815260200160002054101561187157600080fd5b600360008373ffffffffffffffffffffffffffffffffffffffff1673ffffffffffffffffffffffffffffffffffffffff1681526020019081526020016000205481600360008573ffffffffffffffffffffffffffffffffffffffff1673ffffffffffffffffffffffffffffffffffffffff168152602001908152602001600020546118fc91906128a2565b101561190757600080fd5b6000600360008473ffffffffffffffffffffffffffffffffffffffff1673ffffffffffffffffffffffffffffffffffffffff16815260200190815260200160002054600360008673ffffffffffffffffffffffffffffffffffffffff1673ffffffffffffffffffffffffffffffffffffffff1681526020019081526020016000205461199391906128a2565b905081600360008673ffffffffffffffffffffffffffffffffffffffff1673ffffffffffffffffffffffffffffffffffffffff16815260200190815260200160002060008282546119e49190612983565b9250508190555081600360008573ffffffffffffffffffffffffffffffffffffffff1673ffffffffffffffffffffffffffffffffffffffff1681526020019081526020016000206000828254611a3a91906128a2565b925050819055508273ffffffffffffffffffffffffffffffffffffffff168473ffffffffffffffffffffffffffffffffffffffff167fddf252ad1be2c89b69c2b068fc378daa952ba7f163c4a11628f55a4df523b3ef84604051611a9e9190612842565b60405180910390a380600360008573ffffffffffffffffffffffffffffffffffffffff1673ffffffffffffffffffffffffffffffffffffffff16815260200190815260200160002054600360008773ffffffffffffffffffffffffffffffffffffffff1673ffffffffffffffffffffffffffffffffffffffff16815260200190815260200160002054611b3191906128a2565b14611b65577f4e487b7100000000000000000000000000000000000000000000000000000000600052600160045260246000fd5b50505050565b600080600560009054906101000a900473ffffffffffffffffffffffffffffffffffffffff1673ffffffffffffffffffffffffffffffffffffffff166370a08231306040518263ffffffff1660e01b8152600401611bc9919061260a565b60206040518083038186803b158015611be157600080fd5b505afa158015611bf5573d6000803e3d6000fd5b505050506040513d601f19601f82011682018060405250810190611c199190612155565b90506000600660009054906101000a900473ffffffffffffffffffffffffffffffffffffffff1673ffffffffffffffffffffffffffffffffffffffff166370a08231306040518263ffffffff1660e01b8152600401611c78919061260a565b60206040518083038186803b158015611c9057600080fd5b505afa158015611ca4573d6000803e3d6000fd5b505050506040513d601f19601f82011682018060405250810190611cc89190612155565b9050600060085490506000600954905060008285611ce69190612983565b905060008285611cf69190612983565b9050600060025490506000811415611d2657818284611d159190612929565b611d1f91906128f8565b9750611d40565b818284611d339190612929565b611d3d91906128f8565b97505b60008811611d83576040517f08c379a0000000000000000000000000000000000000000000000000000000008152600401611d7a90612702565b60405180910390fd5b611d8d8989611ef6565b50611d9a87878787611df6565b3373ffffffffffffffffffffffffffffffffffffffff167fc324c34388e433281d128336df982824b8e77c37ee8572eb94f5d58cf38b010e8484604051611de292919061285d565b60405180910390a250505050505050919050565b60008410158015611e08575060008310155b611e47576040517f08c379a0000000000000000000000000000000000000000000000000000000008152600401611e3e906127c2565b60405180910390fd5b600082118015611e575750600081115b15611ea5578082611e6891906128f8565b600b6000828254611e7991906128a2565b925050819055508181611e8c91906128f8565b600c6000828254611e9d91906128a2565b925050819055505b83600881905550826009819055507fcf2aa50876cdfbb541206f89af0ee78d44a2abf8d328e37fa4917f982149848a600854600854604051611ee892919061285d565b60405180910390a150505050565b600081600360008573ffffffffffffffffffffffffffffffffffffffff1673ffffffffffffffffffffffffffffffffffffffff1681526020019081526020016000206000828254611f4791906128a2565b925050819055508160026000828254611f6091906128a2565b925050819055503373ffffffffffffffffffffffffffffffffffffffff167f0f6798a560793a54c3bcfe86a93cde1e73087d944c0ea20544137d412139688583604051611fad9190612842565b60405180910390a26001905092915050565b600081359050611fce81612b02565b92915050565b600081519050611fe381612b19565b92915050565b600081359050611ff881612b30565b92915050565b60008151905061200d81612b30565b92915050565b60006020828403121561202557600080fd5b600061203384828501611fbf565b91505092915050565b6000806040838503121561204f57600080fd5b600061205d85828601611fbf565b925050602061206e85828601611fbf565b9150509250929050565b60008060006060848603121561208d57600080fd5b600061209b86828701611fbf565b93505060206120ac86828701611fbf565b92505060406120bd86828701611fe9565b9150509250925092565b600080604083850312156120da57600080fd5b60006120e885828601611fbf565b92505060206120f985828601611fe9565b9150509250929050565b60006020828403121561211557600080fd5b600061212384828501611fd4565b91505092915050565b60006020828403121561213e57600080fd5b600061214c84828501611fe9565b91505092915050565b60006020828403121561216757600080fd5b600061217584828501611ffe565b91505092915050565b60008060006060848603121561219357600080fd5b60006121a186828701611fe9565b93505060206121b286828701611fbf565b92505060406121c386828701611fbf565b9150509250925092565b600080604083850312156121e057600080fd5b60006121ee85828601611fe9565b92505060206121ff85828601611fe9565b9150509250929050565b60008060006060848603121561221e57600080fd5b600061222c86828701611fe9565b935050602061223d86828701611fe9565b925050604061224e86828701611fe9565b9150509250925092565b612261816129b7565b82525050565b612270816129c9565b82525050565b600061228182612886565b61228b8185612891565b935061229b8185602086016129ff565b6122a481612af1565b840191505092915050565b60006122bc601783612891565b91507f5472616e666572206f6620746f6b656e206661696c65640000000000000000006000830152602082019050919050565b60006122fc601483612891565b91507f64732d6d6174682d6d756c2d6f766572666c6f770000000000000000000000006000830152602082019050919050565b600061233c601783612891565b91507f4c697175696469747920616464656420696e76616c69640000000000000000006000830152602082019050919050565b600061237c601483612891565b91507f64732d6d6174682d6164642d6f766572666c6f770000000000000000000000006000830152602082019050919050565b60006123bc601883612891565b91507f5472616e73666572206f6620746f6b656e206661696c656400000000000000006000830152602082019050919050565b60006123fc601a83612891565b91507f496e73756666696369656e74206f757470757420616d6f756e740000000000006000830152602082019050919050565b600061243c602883612891565b91507f556e697377617056324c6962726172793a20494e53554646494349454e545f4c60008301527f49515549444954590000000000000000000000000000000000000000000000006020830152604082019050919050565b60006124a2601183612891565b91507f496e76616c696420616c6c6f77616e63650000000000000000000000000000006000830152602082019050919050565b60006124e2601083612891565b91507f496e76616c69642062616c616e636573000000000000000000000000000000006000830152602082019050919050565b6000612522601383612891565b91507f496e73756666696369656e7420616d6f756e74000000000000000000000000006000830152602082019050919050565b6000612562601583612891565b91507f496e76616c696420746f6b656e206164647265737300000000000000000000006000830152602082019050919050565b60006125a2602b83612891565b91507f556e697377617056324c6962726172793a20494e53554646494349454e545f4960008301527f4e5055545f414d4f554e540000000000000000000000000000000000000000006020830152604082019050919050565b612604816129f5565b82525050565b600060208201905061261f6000830184612258565b92915050565b600060608201905061263a6000830186612258565b6126476020830185612258565b61265460408301846125fb565b949350505050565b60006040820190506126716000830185612258565b61267e60208301846125fb565b9392505050565b600060208201905061269a6000830184612267565b92915050565b600060208201905081810360008301526126ba8184612276565b905092915050565b600060208201905081810360008301526126db816122af565b9050919050565b600060208201905081810360008301526126fb816122ef565b9050919050565b6000602082019050818103600083015261271b8161232f565b9050919050565b6000602082019050818103600083015261273b8161236f565b9050919050565b6000602082019050818103600083015261275b816123af565b9050919050565b6000602082019050818103600083015261277b816123ef565b9050919050565b6000602082019050818103600083015261279b8161242f565b9050919050565b600060208201905081810360008301526127bb81612495565b9050919050565b600060208201905081810360008301526127db816124d5565b9050919050565b600060208201905081810360008301526127fb81612515565b9050919050565b6000602082019050818103600083015261281b81612555565b9050919050565b6000602082019050818103600083015261283b81612595565b9050919050565b600060208201905061285760008301846125fb565b92915050565b600060408201905061287260008301856125fb565b61287f60208301846125fb565b9392505050565b600081519050919050565b600082825260208201905092915050565b60006128ad826129f5565b91506128b8836129f5565b9250827fffffffffffffffffffffffffffffffffffffffffffffffffffffffffffffffff038211156128ed576128ec612a64565b5b828201905092915050565b6000612903826129f5565b915061290e836129f5565b92508261291e5761291d612a93565b5b828204905092915050565b6000612934826129f5565b915061293f836129f5565b9250817fffffffffffffffffffffffffffffffffffffffffffffffffffffffffffffffff048311821515161561297857612977612a64565b5b828202905092915050565b600061298e826129f5565b9150612999836129f5565b9250828210156129ac576129ab612a64565b5b828203905092915050565b60006129c2826129d5565b9050919050565b60008115159050919050565b600073ffffffffffffffffffffffffffffffffffffffff82169050919050565b6000819050919050565b60005b83811015612a1d578082015181840152602081019050612a02565b83811115612a2c576000848401525b50505050565b60006002820490506001821680612a4a57607f821691505b60208210811415612a5e57612a5d612ac2565b5b50919050565b7f4e487b7100000000000000000000000000000000000000000000000000000000600052601160045260246000fd5b7f4e487b7100000000000000000000000000000000000000000000000000000000600052601260045260246000fd5b7f4e487b7100000000000000000000000000000000000000000000000000000000600052602260045260246000fd5b6000601f19601f8301169050919050565b612b0b816129b7565b8114612b1657600080fd5b50565b612b22816129c9565b8114612b2d57600080fd5b50565b612b39816129f5565b8114612b4457600080fd5b5056fea2646970667358221220c9568dcebece486cb855ee06da22ae2339d7677fb9bbf1dd2638d13b4767732364736f6c63430008000033",
  "linkReferences": {},
  "deployedLinkReferences": {}
}