{
  "_format": "hh-sol-artifact-1",
  "contractName": "ERC20Token",
  "sourceName": "contracts/ERC20Token.sol",
  "abi": [
    {
      "inputs": [
        {
          "internalType": "uint256",
          "name": "initialSupply",
          "type": "uint256"
        },
        {
          "internalType": "string",
          "name": "tokenName",
          "type": "string"
        },
        {
          "internalType": "string",
          "name": "tokenSymbol",
          "type": "string"
        }
      ],
      "stateMutability": "nonpayable",
      "type": "constructor"
    },
    {
      "anonymous": false,
      "inputs": [
        {
          "indexed": true,
          "internalType": "address",
          "name": "_owner",
          "type": "address"
        },
        {
          "indexed": true,
          "internalType": "address",
          "name": "_spender",
          "type": "address"
        },
        {
          "indexed": false,
          "internalType": "uint256",
          "name": "_value",
          "type": "uint256"
        }
      ],
      "name": "Approval",
      "type": "event"
    },
    {
      "anonymous": false,
      "inputs": [
        {
          "indexed": true,
          "internalType": "address",
          "name": "from",
          "type": "address"
        },
        {
          "indexed": false,
          "internalType": "uint256",
          "name": "value",
          "type": "uint256"
        }
      ],
      "name": "Burn",
      "type": "event"
    },
    {
      "anonymous": false,
      "inputs": [
        {
          "indexed": true,
          "internalType": "address",
          "name": "from",
          "type": "address"
        },
        {
          "indexed": false,
          "internalType": "uint256",
          "name": "value",
          "type": "uint256"
        }
      ],
      "name": "Mint",
      "type": "event"
    },
    {
      "anonymous": false,
      "inputs": [
        {
          "indexed": true,
          "internalType": "address",
          "name": "from",
          "type": "address"
        },
        {
          "indexed": true,
          "internalType": "address",
          "name": "to",
          "type": "address"
        },
        {
          "indexed": false,
          "internalType": "uint256",
          "name": "value",
          "type": "uint256"
        }
      ],
      "name": "Transfer",
      "type": "event"
    },
    {
      "inputs": [
        {
          "internalType": "address",
          "name": "",
          "type": "address"
        },
        {
          "internalType": "address",
          "name": "",
          "type": "address"
        }
      ],
      "name": "allowance",
      "outputs": [
        {
          "internalType": "uint256",
          "name": "",
          "type": "uint256"
        }
      ],
      "stateMutability": "view",
      "type": "function"
    },
    {
      "inputs": [
        {
          "internalType": "address",
          "name": "_spender",
          "type": "address"
        },
        {
          "internalType": "uint256",
          "name": "_value",
          "type": "uint256"
        }
      ],
      "name": "approve",
      "outputs": [
        {
          "internalType": "bool",
          "name": "success",
          "type": "bool"
        }
      ],
      "stateMutability": "nonpayable",
      "type": "function"
    },
    {
      "inputs": [
        {
          "internalType": "address",
          "name": "",
          "type": "address"
        }
      ],
      "name": "balanceOf",
      "outputs": [
        {
          "internalType": "uint256",
          "name": "",
          "type": "uint256"
        }
      ],
      "stateMutability": "view",
      "type": "function"
    },
    {
      "inputs": [
        {
          "internalType": "uint256",
          "name": "_value",
          "type": "uint256"
        }
      ],
      "name": "burn",
      "outputs": [
        {
          "internalType": "bool",
          "name": "success",
          "type": "bool"
        }
      ],
      "stateMutability": "nonpayable",
      "type": "function"
    },
    {
      "inputs": [],
      "name": "name",
      "outputs": [
        {
          "internalType": "string",
          "name": "",
          "type": "string"
        }
      ],
      "stateMutability": "view",
      "type": "function"
    },
    {
      "inputs": [],
      "name": "symbol",
      "outputs": [
        {
          "internalType": "string",
          "name": "",
          "type": "string"
        }
      ],
      "stateMutability": "view",
      "type": "function"
    },
    {
      "inputs": [],
      "name": "totalSupply",
      "outputs": [
        {
          "internalType": "uint256",
          "name": "",
          "type": "uint256"
        }
      ],
      "stateMutability": "view",
      "type": "function"
    },
    {
      "inputs": [
        {
          "internalType": "address",
          "name": "_to",
          "type": "address"
        },
        {
          "internalType": "uint256",
          "name": "_value",
          "type": "uint256"
        }
      ],
      "name": "transfer",
      "outputs": [
        {
          "internalType": "bool",
          "name": "success",
          "type": "bool"
        }
      ],
      "stateMutability": "nonpayable",
      "type": "function"
    },
    {
      "inputs": [
        {
          "internalType": "address",
          "name": "_from",
          "type": "address"
        },
        {
          "internalType": "address",
          "name": "_to",
          "type": "address"
        },
        {
          "internalType": "uint256",
          "name": "_value",
          "type": "uint256"
        }
      ],
      "name": "transferFrom",
      "outputs": [
        {
          "internalType": "bool",
          "name": "success",
          "type": "bool"
        }
      ],
      "stateMutability": "nonpayable",
      "type": "function"
    }
  ],
  "bytecode": "0x60806040523480156200001157600080fd5b50604051620012d5380380620012d58339818101604052810190620000379190620001f8565b82600281905550600254600360003373ffffffffffffffffffffffffffffffffffffffff1673ffffffffffffffffffffffffffffffffffffffff1681526020019081526020016000208190555081600090805190602001906200009c929190620000bf565b508060019080519060200190620000b5929190620000bf565b50505050620003d5565b828054620000cd9062000327565b90600052602060002090601f016020900481019282620000f157600085556200013d565b82601f106200010c57805160ff19168380011785556200013d565b828001600101855582156200013d579182015b828111156200013c5782518255916020019190600101906200011f565b5b5090506200014c919062000150565b5090565b5b808211156200016b57600081600090555060010162000151565b5090565b6000620001866200018084620002b4565b62000280565b9050828152602081018484840111156200019f57600080fd5b620001ac848285620002f1565b509392505050565b600082601f830112620001c657600080fd5b8151620001d88482602086016200016f565b91505092915050565b600081519050620001f281620003bb565b92915050565b6000806000606084860312156200020e57600080fd5b60006200021e86828701620001e1565b935050602084015167ffffffffffffffff8111156200023c57600080fd5b6200024a86828701620001b4565b925050604084015167ffffffffffffffff8111156200026857600080fd5b6200027686828701620001b4565b9150509250925092565b6000604051905081810181811067ffffffffffffffff82111715620002aa57620002a96200038c565b5b8060405250919050565b600067ffffffffffffffff821115620002d257620002d16200038c565b5b601f19601f8301169050602081019050919050565b6000819050919050565b60005b8381101562000311578082015181840152602081019050620002f4565b8381111562000321576000848401525b50505050565b600060028204905060018216806200034057607f821691505b602082108114156200035757620003566200035d565b5b50919050565b7f4e487b7100000000000000000000000000000000000000000000000000000000600052602260045260246000fd5b7f4e487b7100000000000000000000000000000000000000000000000000000000600052604160045260246000fd5b620003c681620002e7565b8114620003d257600080fd5b50565b610ef080620003e56000396000f3fe608060405234801561001057600080fd5b50600436106100935760003560e01c806342966c681161006657806342966c681461013457806370a082311461016457806395d89b4114610194578063a9059cbb146101b2578063dd62ed3e146101e257610093565b806306fdde0314610098578063095ea7b3146100b657806318160ddd146100e657806323b872dd14610104575b600080fd5b6100a0610212565b6040516100ad9190610c6d565b60405180910390f35b6100d060048036038101906100cb9190610b56565b6102a0565b6040516100dd9190610c52565b60405180910390f35b6100ee610392565b6040516100fb9190610caf565b60405180910390f35b61011e60048036038101906101199190610b07565b610398565b60405161012b9190610c52565b60405180910390f35b61014e60048036038101906101499190610b92565b610502565b60405161015b9190610c52565b60405180910390f35b61017e60048036038101906101799190610aa2565b610616565b60405161018b9190610caf565b60405180910390f35b61019c61062e565b6040516101a99190610c6d565b60405180910390f35b6101cc60048036038101906101c79190610b56565b6106bc565b6040516101d99190610c52565b60405180910390f35b6101fc60048036038101906101f79190610acb565b6106d3565b6040516102099190610caf565b60405180910390f35b6000805461021f90610deb565b80601f016020809104026020016040519081016040528092919081815260200182805461024b90610deb565b80156102985780601f1061026d57610100808354040283529160200191610298565b820191906000526020600020905b81548152906001019060200180831161027b57829003601f168201915b505050505081565b600081600460003373ffffffffffffffffffffffffffffffffffffffff1673ffffffffffffffffffffffffffffffffffffffff16815260200190815260200160002060008573ffffffffffffffffffffffffffffffffffffffff1673ffffffffffffffffffffffffffffffffffffffff168152602001908152602001600020819055508273ffffffffffffffffffffffffffffffffffffffff163373ffffffffffffffffffffffffffffffffffffffff167f8c5be1e5ebec7d5bd14f71427d1e84f3dd0314c0f7b2291e5b200ac8c7c3b925846040516103809190610caf565b60405180910390a36001905092915050565b60025481565b6000600460008573ffffffffffffffffffffffffffffffffffffffff1673ffffffffffffffffffffffffffffffffffffffff16815260200190815260200160002060003373ffffffffffffffffffffffffffffffffffffffff1673ffffffffffffffffffffffffffffffffffffffff16815260200190815260200160002054821115610459576040517f08c379a000000000000000000000000000000000000000000000000000000000815260040161045090610c8f565b60405180910390fd5b81600460008673ffffffffffffffffffffffffffffffffffffffff1673ffffffffffffffffffffffffffffffffffffffff16815260200190815260200160002060003373ffffffffffffffffffffffffffffffffffffffff1673ffffffffffffffffffffffffffffffffffffffff16815260200190815260200160002060008282546104e59190610d3c565b925050819055506104f78484846106f8565b600190509392505050565b600081600360003373ffffffffffffffffffffffffffffffffffffffff1673ffffffffffffffffffffffffffffffffffffffff16815260200190815260200160002054101561055057600080fd5b81600360003373ffffffffffffffffffffffffffffffffffffffff1673ffffffffffffffffffffffffffffffffffffffff168152602001908152602001600020600082825461059f9190610d3c565b9250508190555081600260008282546105b89190610d3c565b925050819055503373ffffffffffffffffffffffffffffffffffffffff167fcc16f5dbb4873280815c1ee09dbd06736cffcc184412cf7a71a0fdb75d397ca5836040516106059190610caf565b60405180910390a260019050919050565b60036020528060005260406000206000915090505481565b6001805461063b90610deb565b80601f016020809104026020016040519081016040528092919081815260200182805461066790610deb565b80156106b45780601f10610689576101008083540402835291602001916106b4565b820191906000526020600020905b81548152906001019060200180831161069757829003601f168201915b505050505081565b60006106c93384846106f8565b6001905092915050565b6004602052816000526040600020602052806000526040600020600091509150505481565b600073ffffffffffffffffffffffffffffffffffffffff168273ffffffffffffffffffffffffffffffffffffffff16141561073257600080fd5b80600360008573ffffffffffffffffffffffffffffffffffffffff1673ffffffffffffffffffffffffffffffffffffffff16815260200190815260200160002054101561077e57600080fd5b600360008373ffffffffffffffffffffffffffffffffffffffff1673ffffffffffffffffffffffffffffffffffffffff1681526020019081526020016000205481600360008573ffffffffffffffffffffffffffffffffffffffff1673ffffffffffffffffffffffffffffffffffffffff168152602001908152602001600020546108099190610ce6565b101561081457600080fd5b6000600360008473ffffffffffffffffffffffffffffffffffffffff1673ffffffffffffffffffffffffffffffffffffffff16815260200190815260200160002054600360008673ffffffffffffffffffffffffffffffffffffffff1673ffffffffffffffffffffffffffffffffffffffff168152602001908152602001600020546108a09190610ce6565b905081600360008673ffffffffffffffffffffffffffffffffffffffff1673ffffffffffffffffffffffffffffffffffffffff16815260200190815260200160002060008282546108f19190610d3c565b9250508190555081600360008573ffffffffffffffffffffffffffffffffffffffff1673ffffffffffffffffffffffffffffffffffffffff16815260200190815260200160002060008282546109479190610ce6565b925050819055508273ffffffffffffffffffffffffffffffffffffffff168473ffffffffffffffffffffffffffffffffffffffff167fddf252ad1be2c89b69c2b068fc378daa952ba7f163c4a11628f55a4df523b3ef846040516109ab9190610caf565b60405180910390a380600360008573ffffffffffffffffffffffffffffffffffffffff1673ffffffffffffffffffffffffffffffffffffffff16815260200190815260200160002054600360008773ffffffffffffffffffffffffffffffffffffffff1673ffffffffffffffffffffffffffffffffffffffff16815260200190815260200160002054610a3e9190610ce6565b14610a72577f4e487b7100000000000000000000000000000000000000000000000000000000600052600160045260246000fd5b50505050565b600081359050610a8781610e8c565b92915050565b600081359050610a9c81610ea3565b92915050565b600060208284031215610ab457600080fd5b6000610ac284828501610a78565b91505092915050565b60008060408385031215610ade57600080fd5b6000610aec85828601610a78565b9250506020610afd85828601610a78565b9150509250929050565b600080600060608486031215610b1c57600080fd5b6000610b2a86828701610a78565b9350506020610b3b86828701610a78565b9250506040610b4c86828701610a8d565b9150509250925092565b60008060408385031215610b6957600080fd5b6000610b7785828601610a78565b9250506020610b8885828601610a8d565b9150509250929050565b600060208284031215610ba457600080fd5b6000610bb284828501610a8d565b91505092915050565b610bc481610d82565b82525050565b6000610bd582610cca565b610bdf8185610cd5565b9350610bef818560208601610db8565b610bf881610e7b565b840191505092915050565b6000610c10601183610cd5565b91507f496e76616c696420616c6c6f77616e63650000000000000000000000000000006000830152602082019050919050565b610c4c81610dae565b82525050565b6000602082019050610c676000830184610bbb565b92915050565b60006020820190508181036000830152610c878184610bca565b905092915050565b60006020820190508181036000830152610ca881610c03565b9050919050565b6000602082019050610cc46000830184610c43565b92915050565b600081519050919050565b600082825260208201905092915050565b6000610cf182610dae565b9150610cfc83610dae565b9250827fffffffffffffffffffffffffffffffffffffffffffffffffffffffffffffffff03821115610d3157610d30610e1d565b5b828201905092915050565b6000610d4782610dae565b9150610d5283610dae565b925082821015610d6557610d64610e1d565b5b828203905092915050565b6000610d7b82610d8e565b9050919050565b60008115159050919050565b600073ffffffffffffffffffffffffffffffffffffffff82169050919050565b6000819050919050565b60005b83811015610dd6578082015181840152602081019050610dbb565b83811115610de5576000848401525b50505050565b60006002820490506001821680610e0357607f821691505b60208210811415610e1757610e16610e4c565b5b50919050565b7f4e487b7100000000000000000000000000000000000000000000000000000000600052601160045260246000fd5b7f4e487b7100000000000000000000000000000000000000000000000000000000600052602260045260246000fd5b6000601f19601f8301169050919050565b610e9581610d70565b8114610ea057600080fd5b50565b610eac81610dae565b8114610eb757600080fd5b5056fea2646970667358221220f0aec62c09068b31793a82ac97d1a5a1b3b7720e0233d60877ed340dba34cab564736f6c63430008000033",
  "linkReferences": {},
  "deployedLinkReferences": {}
}